:02000000572C7B
:10000800FF00030E8301AA000A08A9008A017008EC
:10001800A2007108A1000B1D2028F83081002508D6
:10002800013EF00000300318013E2607F100700879
:10003800A5007108A6000B112208F0002108F100A4
:0E00480029088A002A0E8300FF0E7F0E090091
:10005600831203135108033C031D33285008FF3C49
:1000660003183928FF30D0000330D1005008F000C3
:100076005108F100F10CF00CF113F10CF00CF11336
:1000860070089B00CF301D05F30003305005F200C9
:100096007208F000F00D7010F00D7010F00D701079
:0C00A600F00D7010700873049D0008003D
:1000B200831203135108033C031D61285008FF3CBF
:1000C20003186728FF30D0000330D1005008F00039
:1000D2005108F100F10CF00CF113F10CF00CF113DA
:1000E20070089500CF301705F30003305005F20079
:1000F2007208F000F00D7010F00D7010F00D70101D
:0C010200F00D70107008730497000800E6
:10010E0083120313FB01FA01F901F801A001730D2B
:10011E00F80D7408F8027508031C750FF9027608BD
:10012E00031C760FFA027708031C770FFB020001FF
:10013E00031C0130A002F30D0730FC00730DF80D07
:10014E00F90DFA0DFB0DA00D7408731CC028F802F2
:10015E007508031C750FF9027608031C760FFA0258
:10016E007708031C770FFB020001031C0130A0026D
:10017E00D128F80775080318750FF90776080318C4
:10018E00760FFA0777080318770FFB07000103189D
:10019E000130A007F30DFC0BA528720DF80DF90D1B
:1001AE00FA0DFB0DA00D7408731CEF28F8027508EC
:1001BE00031C750FF9027608031C760FFA027708F6
:1001CE00031C770FFB020001031C0130A002002963
:1001DE00F80775080318750FF90776080318760FD8
:1001EE00FA0777080318770FFB0700010318013091
:1001FE00A007F20D0730FC00720DF80DF90DFA0D87
:10020E00FB0DA00D7408721C1E29F8027508031C44
:10021E00750FF9027608031C760FFA027708031C95
:10022E00770FFB020001031C0130A0022F29F807F3
:10023E0075080318750FF90776080318760FFA0775
:10024E0077080318770FFB07000103180130A0078A
:10025E00F20DFC0B0329710DF80DF90DFA0DFB0DC6
:10026E00A00D7408721C4D29F8027508031C750F39
:10027E00F9027608031C760FFA027708031C770F33
:10028E00FB020001031C0130A0025E29F80775086D
:10029E000318750FF90776080318760FFA07770813
:1002AE000318770FFB07000103180130A007F10DAB
:1002BE000730FC00710DF80DF90DFA0DFB0DA00DB8
:1002CE007408711C7C29F8027508031C750FF9025D
:1002DE007608031C760FFA027708031C770FFB02D1
:1002EE000001031C0130A0028D29F80775080318C0
:1002FE00750FF90776080318760FFA0777080318B3
:10030E00770FFB07000103180130A007F10DFC0B5E
:10031E006129700DF80DF90DFA0DFB0DA00D740885
:10032E00711CAB29F8027508031C750FF9027608CB
:10033E00031C760FFA027708031C770FFB020001ED
:10034E00031C0130A002BC29F80775080318750FAD
:10035E00F90776080318760FFA0777080318770F50
:10036E00FB07000103180130A007F00D0730FC0059
:10037E00700DF80DF90DFA0DFB0DA00D7408701C23
:10038E00DA29F8027508031C750FF9027608031CAA
:10039E00760FFA027708031C770FFB020001031C8D
:1003AE000130A002EB29F80775080318750FF9073D
:1003BE0076080318760FFA0777080318770FFB07EE
:1003CE00000103180130A007F00DFC0BBF297018B7
:1003DE00FE297408F80775080318750FF9077608D3
:1003EE000318760FFA0777080318770FFB07080034
:1003FE00831203132230FC00F801F901FA01FB010C
:10040E00FC030319352A0310FB0CFA0CF90CF80C3B
:10041E00F30CF20CF10CF00C031C072AFC0303196D
:10042E00272A7408F80775080318750FF907760858
:10043E000318760FFA0777080318770FFB070B2AB6
:10044E007408F80775080318750FF907760803186E
:0E045E00760FFA0777080318770FFB070800E0
:10046C0083120313881088183D2A08103E2A08149A
:10047C000818422A8811432A88158819472A081116
:10048C00482A0815D001D1015920D001D1012B20C7
:02049C00080056
:10049E008312031308158811081488104C08D00015
:1004AE004D08D10059204E08D0004F08D1002B2006
:0204BE00080034
:1004C000831203132508F3002608F400730825029D
:1004D000F1007408031C013E2602F2004D0872026E
:1004E000031D742A4C0871020318772A662A080033
:1004F000831203134C08F5004D08F600F50DF60DB8
:10050000751090018F018E0110140F08F300F40193
:100510007308F100F0010E087004F2007108F30096
:100520000030F30476087302031D982A75087202DE
:0C053000031C9B2A9C2A852A101008003E
:10053C0083120313F801F9011030FC00710DF80D52
:10054C00F90D7408F8027508031C750FF9020318ED
:10055C00B62A7408F80775080318750FF907031005
:0A056C00F00DF10DFC0BA42A0800AD
:0E0576008312031328088A0027088200080059
:10058400C530831203139F0528309F041E30CC000E
:100594000030CD0078221F151F1DD12ACE2A1E0837
:1005A400F300F4017308F100F00183161E08F0044F
:0605B4000030F104080014
:1005BA00831203130810881408158811C330D00059
:1005CA000030D1005920C330D0000030D1002B2098
:0205DA00080017
:1005DC008312031306100230CC000030CD007822B9
:1005EC0006140A30CC000030CD00782206106030A2
:1005FC00BF00EA30C000C101C20186181C2B3F08A5
:10060C00F0004008F1004108F2004208F30001300C
:10061C00BF02031CC002031CC102031CC2027008EF
:10062C0071047204730403191C2B032B0030F000AB
:10063C004206031D2B2B70084106031D2B2B700843
:10064C004006031D2B2B3F08003A031D302BF001F5
:10065C00F101772B8F018E01900110146030BF00D7
:10066C00EA30C000C101C201861C532B3F08F000C8
:10067C004008F1004108F2004208F3000130BF02CB
:10068C00031CC002031CC102031CC20270087104CB
:10069C00720473040319532B3A2B10100030F00022
:1006AC004206031D632B70084106031D632B700863
:1006BC004006031D632B3F08003A031D682BF00115
:1006CC00F101772B0F08F300F4017308F100F0012E
:1006DC000E08F0040030F1047430F4000030F50022
:0406EC009E22080042
:1006F00083120313BF01C00100304002031D822B8F
:1007000032303F020318942B08169830CC00083082
:10071000CD00782208125030CC004630CD0078222F
:0A072000BF0A0319C00A7C2B080071
:10072A000730831603138100F83083128100A0304A
:10073A008B000B11803083169F0006108614061555
:10074A0086150616861686170914880187018312EC
:10075A0008126330831692000530831292000C301F
:10076A0097000C309D0081309F00071487113622B4
:0C077A000A30CC000030CD0060220800E6
:10078600BB228A110A128000840AA70A0319A80A42
:08079600F003031DC32B080052
:10079E00831203130814881008118815C330D00073
:1007AE000030D1005920C330D0000030D1002B20B2
:0207BE00080031
:1007C00083120313430803194D2C3F08F00040081F
:1007D000F100F201F3015830F400F501F601F701E0
:1007E000FF217008C4007108C5007208C6007308B4
:1007F000C7004108F0004208F100F201F30158304F
:10080000F400F501F601F701FF217008C800710836
:10081000C9007208CA007308CB006430F400F50107
:10082000F601F7014408F0004508F1004608F2001F
:100830004708F30087207008C4007108C5007208DB
:10084000C6007308C7004408BF004508C0006430F4
:10085000F400F501F601F7014808F0004908F1003D
:100860004A08F2004B08F30087207008C1007108A5
:10087000C20045087106031D3F2C70084406031D85
:100880004D2C4208003C031D472C4108193C03181D
:100890004D2C1930C102031CC2033F08CC00400894
:0E08A000CD004108CE004208CF004F220800D4
:1008AE0083120313A301A401A501A601B301B40190
:1008BE00B501B601B701B801B901BA01BB01BC015E
:1008CE00BD01BE0195232508AB002608AC002B0800
:1008DE002502F1002C08031C013E2602F20009300D
:1008EE007202031D7C2C1D30710203187F2C6E2C9E
:1008FE008715061EB52C861EB52C861FB52C00300E
:10090E002406031D8C2C00302306031D922C250873
:10091E00A3002608A40023082502F1002408031CC6
:10092E00013E2602F2000D307202031DA02CAC30E7
:10093E007102031CB52C4F30CC000130CD004F306E
:10094E00CE000130CF004F222C30CC000130CD0034
:10095E0060223622871178230714B42C3D08003C00
:10096E000318BA2CBD03C22202307102031DC12C22
:10097E00263070020318C72C8312B50AB601CA2C92
:10098E008312B60AB50108303502031CD02C013093
:10099E00B40014303602031CD52CB40134080319EC
:1009AE00DA2CAD01DC2C0130AD002D18E02C071037
:1009BE00E12C071437080319EB2C3408031DEB2C1C
:1009CE000130B8000130B9003408B70038080319F7
:1009DE00842D39080319F72CBA01BB01BC01B901EA
:1009EE0001303B02031DFD2C77303A020318032D14
:1009FE00BA0A0319BB0A052D0130BC003C080319C5
:100A0E004E2D3D08003A031D4E2D06192D2D861D27
:100A1E002D2DCF233730CC000030CD006022362272
:100A2E001430CC000030CD0060226830CC00013094
:100A3E00CD006830CE000130CF004F225A30CC00AE
:100A4E000030CD0060221930BD00802C86194E2D4D
:100A5E00061D4E2DDD223730CC000030CD00602239
:100A6E0036221430CC000030CD0060226830CC002D
:100A7E000130CD006830CE000130CF004F225A3009
:100A8E00CC000030CD0060221930BD00802CEE224B
:100A9E007008B0007108B10000307106031D592DA9
:100AAE00003070060319842D3108003C031D612DA2
:100ABE003008163C031C842D36221930CC00003031
:100ACE00CD006022CF232C30CC000130CD0060222F
:100ADE0036221430CC000030CD0060226830CC00BD
:100AEE000130CD006830CE000130CF004F2264308F
:100AFE00CC000030CD006022802C0030061A013070
:100B0E00AE000030861A0130AF002E08003A0130D8
:100B1E00031D0030F0007018962D3210972D3214F0
:100B2E002F08003A0130031D0030F0007018A12D7F
:100B3E00B210A22DB214321CC82DB21CC82D033017
:100B4E003E020318AB2DBE0A03303E02031CBB2D22
:100B5E00D730BF000030C000D730C1000030C20017
:100B6E003408C300E023C62D4F30BF000130C00053
:100B7E004F30C1000130C2003408C300E023B3017E
:100B8E000F2EBE01321CDA2DB218DA2D9B30BF00AB
:100B9E000030C000F530C1000030C2003408C30080
:100BAE00E023B3010F2E3218EB2DB21CEB2DF530D6
:100BBE00BF000030C0009B30C1000030C2003408BE
:100BCE00C300E023B3010F2EB30A0530330203181E
:100BDE00FC2D4F30BF000130C0004F30C10001303E
:100BEE00C2003408C300E0230F2E36222830CC007A
:100BFE000030CD006022DD22061E082E861E082E35
:100C0E00092E0E2EC830CC00CD017822022EB30153
:0E0C1E000830CC000030CD006022802C152E56
:02400E004A2F37
:00000001FF
